:100000000C9435020C949B040C947C020C947C029E
:100010000C947C020C947C020C947C020C947C0268
:100020000C947C020C947C020C94681C0C943A1D79
:100030000C945B160C947C020C947C020C947C0255
:100040000C947C020C947C020C947C020C947C0238
:100050000C947C020C94C3160C947C020C947C02CD
:100060000C947C020C947C020C947C020C947C0218
:100070000C947C020C947C020C947C020C947C0208
:100080000C947C020C947C020C947C020C947C02F8
:100090000C947C020C947C020C947C020C947C02E8
:1000A0000C947C020C947C020C947C025C065E0630
:1000B0006906600662066406660668066B066D06DB
:1000C0006F067A06710673067506770679067C0652
:1000D000B00CB00CE20CE20C200D6E0E6E0E6E0E2B
:1000E000400D6E0EED0DED0D5E0E6E0E6E0E670E7A
:1000F000FA0DFA0DFA0DFA0DFA0DFA0DFA0DFA0DC8
:10010000FA0DFA0DFA0DFA0DFA0DFA0DFA0DFA0DB7
:100110000B0E190E200E270E310EF90EF90E0B0FD5
:100120000B0F020F0B0F0B0F0B0FF90EF90E070F32
:100130000B0F0B0F070FA71DCE1DC01ECE1DC01E1F
:100140001A1E3D1EC01E931EA21E35001E001F005B
:100150002000210022002D002B0014001A000800AE
:1001600015001700260239000400160007000900D8
:100170000A002F00E1001D001B0006001900050009
:100180002A00E000E2000251E3002C0001512800A7
:100190002D00270026002500240023002E0031001A
:1001A000130012000C0018001C002702340033005A
:1001B0000F000E000D000B003000E5003800370086
:1001C0003600100011004C00E400E6000251E70088
:1001D0002C000151280001003A003B003C003D008A
:1001E0003E00440001001E021F02200221022202E2
:1001F00001000100260227022F0230020100010047
:100200000100360237022F0030000100010001001A
:100210000100010001000100010001000100430094
:100220004200410040003F00450030002702260206
:1002300025022402230201003402330201002E00B1
:100240002D00380201000100380228004C002E0267
:100250000100010001000100010001000100010096
:10026000010001003A003B003C003D003E0044001C
:100270000100010052004D000100010001000100D9
:10028000500051004F004A00010001000100010030
:100290001B08060819080100010001000100010007
:1002A000010001000100010001004000560055005E
:1002B000540001002A0030000100570026002500EC
:1002C00024000100010045008500230022002100D8
:1002D000010001000100670020001F001E00010056
:1002E0000100010001006300270028002A0001002E
:1002F0003A003B003C003D003E004400010001008C
:1003000001004D0001000100010001004A00010050
:1003100001004F0001005000010001000100010038
:1003200001000100010001000100010001000100C5
:1003300001000100010043004200410040003F0075
:1003400045003000520001000100010001000100E1
:10035000010001000100010028002A000100010045
:100360000100010001000100510001000100010035
:100370000100010001000100010004033000000041
:1003800012034500720067006F00440061007300B3
:10039000680000000C034F006D006B0062006400F9
:1003A00000000403090409023B00020100A0FA094D
:1003B0000400000103010100092111010001224094
:1003C000000705810308000A090401000103000079
:1003D00000092111010001223600070582032000D7
:1003E0000A1201100100000008EDFE60600001012A
:1003F00002030105010980A10185031601002603FE
:10040000001A81002A8300751095018100C0050C37
:100410000901A1018504160100269C021A01002A87
:100420009C02751095018100C005010906A1010516
:100430000719E029E7150025019508750181029546
:1004400001750881010508190129059505750191B6
:10045000029501750391010507190029FF15002672
:10046000FF00950675088100C00011241FBECFEF64
:10047000DAE0DEBFCDBF04B603FE27C08091F301F2
:100480009091F401A091F501B091F6018730904B65
:10049000A740B04BD1F41092F3011092F4011092E6
:1004A000F5011092F60114BE84B7877F84BF0FB6A2
:1004B000F894A89580916000886180936000109204
:1004C00060000FBEE0E0F8E3099511E0A0E0B1E0C4
:1004D000ECE7FEE302C005900D92A032B107D9F718
:1004E00021E0A0E2B1E001C01D92A33FB207E1F715
:1004F0000E948C190C943C1F0C94000008950895E0
:100500000C947F028091D201836088608093D20135
:10051000A5E1B1E041E050E025E02A0F8D91E82F00
:10052000E295EF70F0E031A18F70BA0102C0660F62
:10053000771F8A95E2F7CB01962F9095932391A38D
:1005400092A1892B82A32A13E9CFAEE0B1E041E06A
:1005500050E027E02A0F8D91E82FE295EF70F0E050
:1005600031A18F70BA0102C0660F771F8A95E2F73A
:10057000CB01962F9095932391A392A1892B82A3CF
:100580002A13E9CF559A209AABE2B1E0E0E2F1E01C
:100590008AE08E0F11921D928E13FCCF0C94AA0547
:1005A0002F923F924F925F926F927F928F929F9283
:1005B000AF92BF92CF92DF92EF92FF920F931F9371
:1005C000CF93DF9300D000D0CDB7DEB7809100018C
:1005D000811104C035E0C32ED12C02C0C12CD12C16
:1005E0009601255D3E4F79013C832B8305E111E0A7
:1005F000AA24A394B12C8824839494E0992E25E016
:10060000722E700E6B817C81DB015C901C92F80174
:1006100081918F01E82FE295EF70F0E021A18F70BA
:10062000A50102C0440F551F8A95E2F7CA01242B89
:1006300021A322A1642E6094262122A350EA5A9578
:10064000F1F7AEE0B1E0BA83A98320E030E0A98100
:10065000BA813D90BA83A983432D42954F7050E0F3
:10066000DA0190962C90AB81BC814C90432D4F7059
:10067000D50102C0AA0FBB1F4A95E2F7AD01422186
:1006800039F44A2D022E01C0440F0A94EAF701C042
:1006900040E04429AB81BC814C932F5F3F4F273012
:1006A0003105A9F691A1692261A292A1892B82A3A9
:1006B0001196BC83AB83FB018081581659F0809260
:1006C00035010E948D1690933701809336018BB1CE
:1006D00089258BB9701296CF809135018823D1F08E
:1006E00080913601909137010E949916069790F0FB
:1006F00080E090E0FC01EC0DFD1DE05EFE4FD701B7
:10070000A80FB91F2C91208301968530910591F790
:100710001092350181E00F900F900F900F90DF91B4
:10072000CF911F910F91FF90EF90DF90CF90BF90EE
:10073000AF909F908F907F906F905F904F903F9081
:100740002F900895CF93DF9380910001811103C012
:10075000C0E0D0E002C0C5E0D0E00E940E050097E6
:1007600091F420E030E0F901E65CFE4F4081F901B0
:10077000EC0FFD1FE05EFE4F40832F5F3F4F2530A3
:10078000310589F702C081E090E0DF91CF910895B3
:10079000CF930E94D002C82F0E94A203892BF9F0A8
:1007A0005D9890912A019F5F90932A019630D0F036
:1007B00080910001811103C040E050E002C045E09B
:1007C00050E020E030E0F901E40FF51FE05EFE4F5D
:1007D00010822F5F3F4F25303105A9F703C05D9A86
:1007E00010922A010E94B2058C2FCF9108950E9489
:1007F000D00280910001811103C025E030E002C0E9
:1008000020E030E080E090E0FC01E20FF31FE05ECA
:10081000FE4F4081FC01E65CFE4F4083019685302F
:10082000910591F70895E82FF0E0E05EFE4F80819A
:1008300008950895E8EDF0E08081806180838AE189
:100840008A95F1F700C08091D900817008950E94C7
:100850001A04809300010E941A04882319F00E9450
:100860008E0404C00E9484160E9492047894089515
:100870000E9482020E94F703FDCF0E9427040E947B
:100880001A04811102C00E9438040895509A0895F4
:100890005098589A0895589A08950E944604589876
:1008A00080E88A95F1F70C944B040E944804489B19
:1008B000FECF80E88A95F1F708950E94480498E0F9
:1008C00080E029B12170880F822B20E82A95F1F76A
:1008D00025E02A95F1F70000915099F708950F93BC
:1008E0001F93CF93082F0E944604C8E010E0C15028
:1008F00088F0C8010C2E02C0959587950A94E2F7FE
:1009000080FF03C00E944B0401C0589880E88A957C
:10091000F1F7EDCFCF911F910F9108950E944604FA
:100920000C944B040E944804E89AE9E6F0E08081C8
:100930008C7F808308951F920F920FB60F9211241F
:10094000CF92DF92EF92FF921F932F933F934F939B
:100950005F936F937F938F939F93AF93BF93EF9327
:10096000FF93CF93DF931F92CDB7DEB70E944D0464
:10097000C12CD12C10E0C601865C9E4F7C01FC018D
:1009800080810E946F040E944D04F7018081180F3E
:10099000FFEFCF1ADF0A85E0C816D10461F7812F77
:1009A0000E946F040E944D0490E89A95F1F7E0E4EC
:1009B000EA95F1F70E945D04809339010E944D048D
:1009C000109139010E945D0489830E944D040E94A8
:1009D00048048981181721F080913801816003C093
:1009E000809138018E7F809338010F90DF91CF91F5
:1009F000FF91EF91BF91AF919F918F917F916F91F7
:100A00005F914F913F912F911F91FF90EF90DF9059
:100A1000CF900F900FBE0F901F901895CF92DF923E
:100A2000EF92FF921F93CF93DF931F92CDB7DEB764
:100A3000F8940E944604589825E02A95F1F70000A2
:100A40000E9448040E944B0430E83A95F1F7489917
:100A500034C00E945504C12CD12C10E00E945D04CA
:100A6000F601E65CFE4F7F0180830E945504F7018A
:100A70008081180FFFEFCF1ADF0A25E0C216D104DC
:100A800069F70E945D0489830E94550489811813C7
:100A900014C0809139010E946F040E945504809116
:100AA00039010E946F040E9455040E9446040E946E
:100AB0004B04789480E090E003C0789481E090E06B
:100AC0000F90DF91CF911F91FF90EF90DF90CF902B
:100AD00008950C947E02089581E0089581E00895C0
:100AE0000C946E051F93CF93DF9300D000D01F921C
:100AF000CDB7DEB749835A832091570189819A8106
:100B0000211112C0662349F00E941E14182F682F6D
:100B100089819A810E94C31303C00E94F213182F87
:100B200069817A81812F04C00E941E1469817A81B3
:100B30000F900F900F900F900F90DF91CF911F911A
:100B40000C942E07FC014081518162817381848164
:100B50000C9472050E944E15811102C00E94C815A6
:100B60000C9469050C94800208950C94B4050C94BF
:100B7000B5050E94E90E0E946B052FEF84E39CE00F
:100B8000215080409040E1F700C0000087E797E7E0
:100B900090930108809300080C94E9160F931F931B
:100BA000CF93DF938C010E94A205EC01B8010E9453
:100BB0007005882309F448C1C73D8CE5D80709F4BE
:100BC000ABC0B0F4C531FCE5DF0768F4C2308CE59A
:100BD000D80708F04FC0C115ECE5DE0701F1C130C0
:100BE000DC4529F125C1C631DC4509F4FAC020C134
:100BF000CC3DECE5DE0771F150F4C83D8CE5D8073B
:100C000009F4ADC0C93DDC4509F4D0C011C1CD3DEA
:100C1000FCE5DF0731F1CE3DDC45A1F009C1F8016B
:100C20008281882309F410C10E94B9050DC1F80121
:100C30008281882309F408C18091D2018160809368
:100C4000D20102C1F8018281882309F4FDC00E940B
:100C5000C815FAC0F8018281882309F4F5C080E044
:100C600006C0F8018281882309F4EEC082E00E9468
:100C70002B1AEAC0F8018281882309F4DEC00E94A1
:100C80004E15811102C00E94C8150E94611590E0A6
:100C90009093E5018093E401FE01E350FC45E231CD
:100CA000F10530F4EA5AFF4F8091E4010C94F41EF0
:100CB0008091E401816027C0826025C0846023C0E8
:100CC000806121C080621FC080641DC080681BC01D
:100CD0008460886018C08E7F16C08D7F14C08B7FA3
:100CE00012C08F7E10C08F7D0EC08F7B0CC08F779F
:100CF0000AC08B7F877F07C087FB222720F991E0FE
:100D0000922790FB87F98093E4018091E4010E948F
:100D100065150E94E90E98C0F8018281882351F080
:100D2000109244010E948D169093410180934001DE
:100D300082E022C08091440181110FC08091400166
:100D4000909141010E9499168837910530F486E20E
:100D50000E94DE0A86E20E940D0C82E024C0F801A7
:100D60008281882361F0109245010E948D16909334
:100D700043018093420180E20E946C0C65C0809127
:100D8000450181110FC080914201909143010E9461
:100D900099168837910530F487E20E94DE0A87E2CF
:100DA0000E940D0C80E20E94730C4EC0F8018281FB
:100DB0008111D9CF809145018111F4CF80914201F9
:100DC000909143010E9499168837910558F780E267
:100DD0000E94730C88E20E94DE0A88E20E940D0CD9
:100DE00033C00E949E14282FF80182814091010196
:100DF00050910201882379F02A7A91E009F490E079
:100E000090933F01911102C069E201C065E3CA01FC
:100E10000E94FC150AC080913F01811102C069E265
:100E200001C065E3CA010E94FE150E94EA140CC0CD
:100E300081E08093440180934501C801DF91CF9107
:100E40001F910F910C946C0580E0DF91CF911F9161
:100E50000F91089580E090E00895089597E0799FBC
:100E6000F001112496E4899FE00DF11D1124E60F95
:100E7000F11DEE0FFF1FE65BFE4F859194910895E3
:100E8000880F991FFC01E658FC4F859194910895B5
:100E9000CF93DF930E942E070E94FF08EC0181157B
:100EA00020E59207F0F5811530E4930708F024C19E
:100EB000883E910500F5803E910508F09CC1883A76
:100EC000910570F4853A910508F09FC08130910535
:100ED00009F491C108F442C1049708F08CC13EC1E5
:100EE0008F3B910508F49CC0803C910508F436C105
:100EF000805C9109F4C0811540E2940758F4C11553
:100F000081E0D80708F077C1C03FD10508F426C1B9
:100F1000D06571C1811520E3920708F0E4C09F708D
:100F2000DEC0811535E5930708F044C0811544E51E
:100F3000940708F0F8C0C11582E5D80708F5C11577
:100F400021E5D20708F0DBC08C2F837021E030E070
:100F500002C0220F331F8A95E2F73C68CE0174E08D
:100F6000969587957A95E1F78370382BCF70C69563
:100F7000C69580E2C89FE0011124C22BD32B3BC150
:100F80002C2F26952695CE0183709927C115D34520
:100F900008F0BAC040E2249F90011124C1E0D0E0E3
:100FA00002C0CC0FDD1F8A95E2F72C2B3D2BE90107
:100FB000DC6821C1811549E59407A0F4C11588E5D5
:100FC000D80708F0B5C0C11526E5D20708F0C6C09D
:100FD0008C2F0E947C098F71C82FD0E0DC2FCC278A
:100FE000D06209C181153AE5930708F4A6C090566E
:100FF0008115904208F0B2C08D2F8F710E947C093C
:10100000DD27D0628F71D82BF6C0853A910509F49F
:10101000A8C0863A910509F0A7C0C2E8D0E4EBC0A9
:10102000883A910509F4A3C0893A910509F4A2C050
:101030008A3A910509F4A1C08B3A910509F4A0C040
:101040008C3A910509F49FC08B3B910509F49EC031
:101050008C3B910509F49DC08D3A910509F49CC023
:10106000803B910509F49BC08E3A910509F49AC022
:101070008F3A910509F499C0813B910509F498C014
:10108000823B910509F497C0833B910509F496C012
:10109000843B910509F495C0853B910509F494C002
:1010A000863B910509F493C0873B910509F492C0F2
:1010B000883B910509F491C0893B910509F490C0E2
:1010C0008D3B910509F48FC08E3B910509F48EC0CC
:1010D0008A3B910509F48DC0C0E0D4E48CC00E9425
:1010E0004007EC0188C09927D3FF03C0EC01D86CFE
:1010F00082C0EC01D06C7FC0DF70D06A7CC0DC2F76
:10110000CC27C16FD06A77C040E2249F90011124A0
:10111000C1E0D0E002C0CC0FDD1F8A95E2F7C22B00
:10112000D32BDA6868C0D82FCC27C46FD06A63C0CD
:10113000DC2FCC27C06FD06A5EC08F700E947C0904
:1011400094E0D695C7959A95E1F7CF70D0E0DC2F63
:10115000CC27D06A8F70806EC82B4DC0C0E0D0E025
:101160004AC0C1E8D0E447C0C3E8D0E444C0C2EEFE
:10117000D4E441C0C9EED4E43EC0CAEED4E43BC0DE
:10118000C5EBD4E438C0C6EBD4E435C0C3EBD4E43B
:1011900032C0C4EBD4E42FC0C7EBD4E42CC0CCECF9
:1011A000D4E429C0CDECD4E426C0C3E8D5E423C000
:1011B000CAE8D5E420C0C2E9D5E41DC0C4E9D5E43D
:1011C0001AC0C1E2D6E417C0C3E2D6E414C0C4E238
:1011D000D6E411C0C5E2D6E40EC0C6E2D6E40BC028
:1011E000C7E2D6E408C0CFE6D4E405C0C0E7D4E443
:1011F00002C0CAE2D6E4CE01DF91CF9108958238D1
:10120000910549F1B0F48133910509F458C048F4CF
:101210008932910509F44EC08A32910509F454C00F
:1012200008958533910509F440C08933910599F0FB
:101230000895833E910529F138F4803E910591F09F
:10124000823E9105A1F00895863E9105F9F0873E12
:10125000910531F108952091E40120FD3AC021FD6E
:1012600038C008958091E40180FD35C032C080917E
:10127000E40182FF32C08091E40184FD30C083EE3E
:1012800039C08091E40182FD28C0F5CF8091E4014E
:1012900083FF27C08091E40184FD21C087EE2AC02E
:1012A0008091E40183FD1DC0F5CF8091E40185FDAF
:1012B0001AC01BC08091E40185FD17C014C0809145
:1012C000E40186FD14C015C08091E40186FD11C0C3
:1012D0000EC080EE0FC089E30DC082EE0BC080E02F
:1012E00009C086EE07C089E205C085E303C08AE233
:1012F00001C081E390E008959091E40192FF0DC058
:10130000282F2871283019F4877F846006C0282F81
:101310002471243011F48B7F886093FF0DC0282F37
:101320002871283119F4877E846106C0282F247122
:10133000243111F48B7E886194FD877E089590930B
:101340004B0180934A010895E0914A01F0914B01CD
:10135000309721F00190F081E02D099480E008950C
:10136000E0914A01F0914B01309721F00280F38126
:10137000E02D099408952091480130914901821788
:10138000930771F09093490180934801E0914A01DD
:10139000F0914B01309721F00680F781E02D099400
:1013A000089520914601309147018217930771F00B
:1013B0009093470180934601E0914A01F0914B01DF
:1013C000309721F00084F185E02D0994089585B7C8
:1013D000806885BF85B7806885BF089508950C949F
:1013E000EE0908950C94F1090E94E7090E943D045A
:1013F0000C94EF0981E008950E9484160E948202F5
:101400000E94FA160C94F209CF92DF92EF92FF92AB
:101410000F931F93CF93DF93CDB7DEB72B970FB604
:10142000F894DEBF0FBECDBF0E94C8030E94FA0928
:10143000811111C08FEF89838A831B820E948D16D0
:101440008160782F9D838C8349815A816B818D8146
:101450000E94AA0A56C08DE4C82E81E0D82E00E072
:1014600010E0E02E802F0E941304F60141916F01DD
:10147000F42EF82631F40F5F1F4F0A30110589F75B
:10148000D9CF9091D20191FF04C08B870E9419049B
:101490008B8520E030E04F2D50E0922FBA01022ED4
:1014A00002C0759567950A94E2F760FF24C02E8309
:1014B000EF8221E030E0690102C0CC0CDD1C9A957E
:1014C000E2F790E08C219D21892B09F420E0288708
:1014D0000E948D168160782F9A8789874E815F815F
:1014E00068858A850E94AA0AF801E35BFE4F808125
:1014F000C826C08206C02F5F3F4F2730310569F6EE
:10150000BACF10914C010E94A4091817A1F00E94B3
:10151000A40980934C012B960FB6F894DEBF0FBE42
:10152000CDBFDF91CF911F910F91FF90EF90DF9092
:10153000CF900C94B7052B960FB6F894DEBF0FBE74
:10154000CDBFDF91CF911F910F91FF90EF90DF9072
:10155000CF900895CF93DF93CDB7DEB72B970FB61B
:10156000F894DEBF0FBECDBF4F83588769877A8757
:101570008B87DE01119686E0FD0111928A95E9F7CD
:1015800085E0FE01379601900D928A95E1F7498139
:101590005A816B817C818D819E810E9493112B9653
:1015A0000FB6F894DEBF0FBECDBFDF91CF91089587
:1015B000FC01808191810E945F140895CF93DF9395
:1015C0001F92CDB7DEB7882309F423C1682F823874
:1015D000C1F40E94A40981FD1CC169E3809101014D
:1015E000909102010E94FC150E94EA142FEF81EEF7
:1015F00094E0215080409040E1F700C0000069E392
:1016000019C0833811F50E94A40980FD02C163E569
:1016100080910101909102010E94FC150E94EA1440
:101620002FEF81EE94E0215080409040E1F700C020
:10163000000063E580910101909102010E94FE1576
:101640000F90DF91CF910C94EA148438C1F40E947A
:10165000A40982FDDEC067E480910101909102013E
:101660000E94FC150E94EA142FEF81EE94E02150B5
:1016700080409040E1F700C0000067E4DBCF8CEFD2
:10168000860F813A70F4862F69830E94CC17698196
:101690008111BFC080910101909102010E94FC154F
:1016A000CFCF80E2860F883048F4677081E001C0B8
:1016B000880F6A95EAF70E94A114C2CF8BE5860FC6
:1016C000833088F4653A29F0663A31F083E890E097
:1016D00005C081E890E002C082E890E00F90DF91C1
:1016E000CF910C94BB0988E5860F873108F091C033
:1016F000683A09F445C0693A09F445C06A3A09F400
:1017000045C06B3A09F445C06C3A09F445C06B3BDF
:1017100009F445C06C3B09F445C06D3A09F445C075
:10172000603B09F445C06E3A09F445C06F3A09F4CC
:1017300045C0613B09F445C0623B09F445C0633BC9
:1017400009F445C0643B09F445C0653B09F445C054
:10175000663B09F445C0673B09F445C0683B09F4A2
:1017600045C0693B09F445C06D3B09F445C06E3B7B
:1017700009F445C06A3B09F445C080E090E044C0EC
:1017800082EE90E041C089EE90E03EC08AEE90E0AB
:101790003BC085EB90E038C086EB90E035C083EB32
:1017A00090E032C084EB90E02FC087EB90E02CC03B
:1017B0008CEC90E029C08DEC90E026C083E891E0AD
:1017C00023C08AE891E020C082E991E01DC084E94D
:1017D00091E01AC081E292E017C083E292E014C067
:1017E00084E292E011C085E292E00EC086E292E0CF
:1017F0000BC087E292E008C08FE690E005C080E76A
:1018000090E002C08AE292E00F90DF91CF910C94B9
:10181000D1090F90DF91CF910895882309F45BC01F
:10182000682F823879F40E94A40981FF54C069E3CB
:1018300080910101909102010E94FC150E94EA141E
:1018400069E310C08338B1F40E94A40980FF43C04B
:1018500063E580910101909102010E94FC150E94B4
:10186000EA1463E580910101909102010E94FE1546
:101870000C94EA14843879F40E94A40982FF2BC0E6
:1018800067E480910101909102010E94FC150E9481
:10189000EA1467E4E7CF8CEF860F813A18F380E211
:1018A000860F883048F4677081E001C0880F6A9520
:1018B000EAF70E94A714DCCF8BE5860F833020F473
:1018C00080E090E00C94BB09685A673120F480E016
:1018D00090E00C94D1090895882321F00E94A1146E
:1018E0000C94EA140895882321F00E94A7140C9404
:1018F000EA1408954F925F926F927F92BF92CF92B7
:10190000DF92EF92FF920F931F93CF93DF937C01AF
:10191000D62FC72FFC01058102950F70128111117E
:101920000E94BE140E949714882379F0112369F055
:1019300080E28D0F883048F082E00E9435150E94C9
:10194000971491E0B82EB92601C0B12CCC2EC294C8
:101950008FE0C822D12CF601E859FF4F0C94F41EF9
:101960008C2F807FCF70882311F0C295C07F112308
:1019700099F0CC2309F48DC180E28D0F883010F0EE
:10198000D11104C08C2F0E94A11403C08C2F0E947F
:10199000B1140E94EA147DC18D2F0E940D0CCC233E
:1019A00009F49CC180E28D0F883010F0D11104C081
:1019B0008C2F0E94A71403C08C2F0E94B7140E9482
:1019C000EA148CC18C2F807FCF70803211F0C295C9
:1019D000C07FDD2319F0D130C9F022C0112371F08E
:1019E000002341F0013031F40E94D1148C2B0E946D
:1019F000D71474C10E94D1148C2B04C1002319F098
:101A0000013009F46BC10E94E01418C0112321F0C9
:101A1000063008F063C10EC0053008F05FC10EC08B
:101A2000112351F0002331F0F701858180FF31C18E
:101A30008F7085838C2FE6C001113CC18C2FE8C0CC
:101A40008C2F86958695837090E0009719F001970A
:101A500061F044C1112321F08D2F9C2F937002C09F
:101A600080E090E00E94BB0949C1112321F08D2F35
:101A70009C2F937002C080E090E00E94D1093EC18B
:101A80008C2F837009F050C0111134C18D2F8295B5
:101A900086958770880F880F9D2F9F70492E512C37
:101AA000612C712C082E04C0440C551C661C771C3C
:101AB0000A94D2F7D4FF14C00FE010E020E030E029
:101AC000B901A80104C0440F551F661F771F8A95EE
:101AD000D2F7CB01BA01609570958095909503C0BF
:101AE00060E070E0CB01C695C695C370D0E0C2300F
:101AF000D10561F0C330D10581F0642975298629AB
:101B00009729219771F00E94D812F4C06429752991
:101B1000862997290E94EA12EDC00E94D812C301BB
:101B2000B2010E94C612E6C0112319F08C2F8170F9
:101B300001C08695882309F4DDC08D2F8295869596
:101B40008770880F880F9D2F9F70492E512C612C14
:101B5000712C082E04C0440C551C661C771C0A947A
:101B6000D2F7D4FF14C00FE010E020E030E0B9015C
:101B7000A80104C0440F551F661F771F8A95D2F72E
:101B8000CB01BA01609570958095909503C060E097
:101B900070E0CB01C695C695C3704C2F50E0423023
:101BA000510569F04330510589F06429752986296A
:101BB00097294130510571F00E949E139BC0642902
:101BC0007529862997290E94B01394C00E949E13FC
:101BD000C301B2010E948C138DC08D2F90E0FC01D7
:101BE000E05EF109E531F10508F04FC0E858FF4F1C
:101BF0000C94F41EDF708C2F8F71112331F00E9432
:101C000025138D2F0E946C0C69C00E9446138D2FE6
:101C10000E94730C63C0112341F0053008F05EC0D0
:101C20008C2F8F710E946B1359C0063008F056C07C
:101C3000F7CF112339F08C2F8F710E9425134EC0DE
:101C40001123C9F38C2F8F710E94461347C01123B3
:101C500029F08C2F8F710E94101340C00E940B132B
:101C60003DC0112349F0CF718C2F0E94251363E0F2
:101C70008C2F0E94201532C081E00E943515023061
:101C800068F182E00E94351529C0112331F000234C
:101C900091F28D2F0E94DE0A21C0002399F2D933E0
:101CA00049F45FEF67EE73E0515060407040E1F738
:101CB00000C000008D2F0E940D0C10C04C2F4F70E3
:101CC0006D2FC7010E942A070E94371217C04C2FA0
:101CD0004F706D2FC7010E942D0710C088E0C816F5
:101CE000D10441F05CF0EAE0CE1AD108F2E0CF1660
:101CF000D10420F40E94A4090E94B705BB20F1F092
:101D00000E94931480FD1AC0F70112820E948D1464
:101D10000E942513C7010E94AC0E0E948D14DF9112
:101D2000CF911F910F91FF90EF90DF90CF90BF90D8
:101D30007F906F905F904F900C944613DF91CF91FE
:101D40001F910F91FF90EF90DF90CF90BF907F9009
:101D50006F905F904F9008950F931F93CF93DF93F1
:101D6000EC01888199812B813C81232BB9F09F3F25
:101D700011F48F3F99F0CE010E94CE05882371F0B7
:101D8000688179818A810E946A148C010E94C21341
:101D90000E94C312B801CE010E947A0CDF91CF914C
:101DA0001F910F9108950E94BE140E94CE140E94AC
:101DB000EA1480E090E00E94BB0980E090E00C947F
:101DC000D10980910101909102010E9400160C94AA
:101DD000D30E0E94AE140C94E10EE92FE295EF7041
:101DE000F0E03297EE30F105B0F4E357FF4F0C947A
:101DF000F41E803F91F018F4803E68F40EC0843FDA
:101E000051F40BC0803E48F0813F29F406C093FB9B
:101E1000882780F9089580E0089581E008950E9460
:101E20005F140E94ED0E0895CF93DF9300D000D091
:101E30001F92CDB7DEB70F900F900F900F900F90BD
:101E4000DF91CF910895CF93DF9300D000D000D0E1
:101E5000CDB7DEB726960FB6F894DEBF0FBECDBF66
:101E6000DF91CF9108951F93CF93DF93C0915801D5
:101E700016E080915901C81799F0D0E01C9FF0013D
:101E80001D9FF00D1124E65AFE4F40815181628161
:101E90007381848195810E94230F2196C770E9CFB9
:101EA000DF91CF911F91089540918A0150918B014C
:101EB00060918C0170918D0180918E0190918F01C4
:101EC0000C94230F80918F0182958F7009F054C07C
:101ED00080918C01882309F44FC080915801A09112
:101EE000590160918A0170918B0140918D0150914F
:101EF0008E01B6E08A1709F43FC090E04115510504
:101F0000C1F17F3F11F46F3FA1F1B89FF001B99F7C
:101F1000F00D1124E65AFE4F218172132AC0208150
:101F2000621327C02281211124C023813481241708
:101F3000350710F421503109241B350B28373105A2
:101F4000C0F420918F012F70206120938F0126E033
:101F5000289FF001299FF00D1124E15AFE4F808146
:101F60008F70806180838AE891E00E94AC0E0C94AF
:101F7000330F01968770BECF0895CF92DF92EF9214
:101F8000FF920F931F93CF93DF93CDB7DEB7629786
:101F90000FB6F894DEBF0FBECDBF8C0185E0F8010F
:101FA000DE011D9601900D928A95E1F7D8014C91C2
:101FB00011965C91119712966C9112971396CD9091
:101FC000DC90149730918A0170918B0180918D0182
:101FD00090918E01009709F46BC17F3F19F43F3F48
:101FE00009F466C1E0908C01EE2009F4C0C0209194
:101FF0008F01C816D90628F0F601E81BF90BCF01AE
:1020000004C0809590958C0D9D1DFF24F394883716
:10201000910578F0F12C207F09F0C6C07C2DD98A7B
:10202000C88A89890E94140F8AE891E00E94AC0E48
:10203000B1C0822F807F09F046C0751314C03413DD
:1020400012C0611110C02F70206120938F010E9477
:10205000540F8AE891E00E94AC0E80918F01D80164
:1020600015968C932EC0CD2819F15F3F11F44F3F88
:10207000F9F0F62E61111CC0809158012091590190
:1020800036E0821709F45AC090E0389FF001399F7A
:10209000F00D1124E65AFE4F7181571306C070816E
:1020A000471303C07281711103C001968770E9CF95
:1020B000F62E662309F427C180918F0181608093F9
:1020C0008F01F12C20C1751308C0341306C06111B3
:1020D00004C080918F01D801C3C04D875E878D8574
:1020E0009E856A8B0E940F0F6A898823E1F166231F
:1020F000D1F120918F01822F82958F7090E002970D
:1021000074F080918A0190918B0198878F83198652
:10211000DB86CA862C87CE0107960E94AC0E86E02D
:10212000F801AAE8B1E001900D928A95E1F70E94CA
:10213000620F0E94540FFF24F394E5C04D875E8721
:102140008D859E850E945F14292F22952F7030E087
:10215000223031050CF0CBC09F7009F0C5C0805E05
:10216000883008F4D0C0C8010E94AC0EE4CFC81675
:10217000D90608F453C0F601E81BF90BCF018837E4
:10218000910508F450C0F12C7C2DD98AC88A898920
:102190000E94140FEAE8F1E086E0DF011D928A95C3
:1021A000E9F70E94540FAFC0751314C0341312C066
:1021B000611110C080918F01F8018583C8010E94D0
:1021C000AC0E86E0EAE8F1E0DF011D928A95E9F7BE
:1021D000FE2C99C04D875E878D859E856A8B0E94F7
:1021E0000F0F6A89882309F4BECF662309F4BBCF99
:1021F00020918F01822F82958F7090E002970CF4CE
:102200008ECF80918A0190918B019A8389831B8262
:10221000DD82CC822E83CE0101967FCF8095909572
:102220008C0D9D1DACCFF62E662309F49CCF751343
:102230002EC034132CC020918F0120FD1FC0822F8F
:1022400082958F70D9F0D80115962C9315978F3001
:1022500049F08F5F982F9295907F822F8F70892BF6
:1022600015968C93C8010E94AC0E86E0F801AAE88E
:10227000B1E001900D928A95E1F793CF86E0F801E5
:10228000AAE8B1E001900D928A95E1F73CC04D8734
:102290005E878D859E850E940F0F811140CF8091B2
:1022A0008F01816080938F01C8010E94AC0E2BC00A
:1022B000662309F458CF4D875E878D859E850E94E1
:1022C0000F0FF82E882309F44ECF86E0F801AAE814
:1022D000B1E001900D928A95E1F78AE891E00E94C1
:1022E000D80A0E94620F5DCF811139CF0CC0243013
:1022F00031050CF038CF9F7009F431CFF80195818A
:10230000907F09F02CCF8F2D62960FB6F894DEBF28
:102310000FBECDBFDF91CF911F910F91FF90EF9036
:10232000DF90CF9008951F93CF93DF93CDB7DEB7A3
:102330002C970FB6F894DEBF0FBECDBF4F835887E2
:1023400069877A878B879C87CE0107960E94BD0F8D
:10235000882369F08F8198852A853B85232BF1F1AD
:102360009F3F09F063C08F3F09F060C037C086E02F
:10237000FE013796DE01119601900D928A95E1F7E4
:102380006F817885EA85FB85309741F17F3F11F4B5
:102390006F3F21F12091590130E0C901019687700A
:1023A00099274091580150E08417950709F447C0D8
:1023B00069837A83FD83EC8396E0929FD001939F9B
:1023C000B00D1124A65ABE4FFE01319601900D9218
:1023D0009A95E1F7809359010E94330F16E080919E
:1023E0005801909159018917C1F1189FC00111241A
:1023F000865A9E4F0E94BD0F882379F1E0915801C3
:102400001E9FF0011124E65AFE4F408151816281E6
:102410007381848195810E94230F8091580190E0FF
:1024200001968770992780935801D9CF4F8158859D
:1024300069857A858B859C850E94230FCFCF0E946A
:10244000E90E1092590110925801EAE8F1E086E095
:10245000DF011D928A95E9F7C1CF2C960FB6F8944B
:10246000DEBF0FBECDBFDF91CF911F910895EF92D8
:10247000FF920F931F93CF93DF938C01892B09F465
:102480006CC0F12CEE24E394E8012196F8018491CC
:10249000843740F4843008F051C0813081F08230BC
:1024A00019F15BC0853709F444C0A8F19CE7980F87
:1024B000903708F052C08F770E940D0C41C00E5F1C
:1024C0001F4FFE01C49180E28C0F883048F4C77022
:1024D0008E2D01C0880FCA95EAF70E94C11414C05E
:1024E0008C2F0E94DE0A2DC00E5F1F4FFE01C4918B
:1024F00080E28C0F883058F4C7708E2D01C0880F91
:10250000CA95EAF70E94C7140E94EA141AC08C2FD9
:102510000E940D0C16C00E5F1F4FFE01C491CC230C
:1025200081F08FE99FE00197F1F700C00000C150F2
:10253000F6CF0E5F1F4FFE01F49003C00E94DE0A2B
:102540008E018F2D882309F49FCFEFE9FFE03197AB
:10255000F1F700C000008150F5CFDF91CF911F91BE
:102560000F91FF90EF90089508950C94B4120E947B
:10257000B5126093C1017093C2018093C30190931F
:10258000C4010C94D30E08950C94B7120F931F93AB
:102590000091C1011091C2012091C3013091C40189
:1025A000602B712B822B932B1F910F910C94B712E0
:1025B0000F931F930091C1011091C2012091C3019B
:1025C0003091C40160237123822393231F910F91C3
:1025D0000C94B7120F931F930091C1011091C20187
:1025E0002091C3013091C40160277127822793276E
:1025F0001F910F910C94B71208950C94FC120E9435
:10260000FD126093BD017093BE018093BF01909352
:10261000C0010C94D30E60E070E0CB010C94FF126B
:102620000F931F9341E050E060E070E08A019B014E
:1026300004C0000F111F221F331F8A95D2F7C90152
:10264000B8011F910F910C94FF120F931F9341E05B
:1026500050E060E070E004C0440F551F661F771F14
:102660008A95D2F78091BD019091BE01A091BF01E2
:10267000B091C0018A019B01082B192B2A2B3B2BFF
:10268000C901B8011F910F910C94FF120F931F9372
:1026900041E050E060E070E004C0440F551F661F49
:1026A000771F8A95D2F740955095609570958091E7
:1026B000BD019091BE01A091BF01B091C0018A01FE
:1026C0009B01082319232A233B23C901B8011F9129
:1026D0000F910C94FF120F931F9341E050E060E0C4
:1026E00070E004C0440F551F661F771F8A95D2F70C
:1026F0008091BD019091BE01A091BF01B091C00138
:102700008A019B01082719272A273B27C901B801FD
:102710001F910F910C94FF120F931F930091BD0115
:102720001091BE012091BF013091C001602B712B2F
:10273000822B932B1F910F910C94FF120F931F93D9
:102740000091BD011091BE012091BF013091C001E7
:1027500060237123822393231F910F910C94FF1206
:102760000F931F930091BD011091BE012091BF01F5
:102770003091C00160277127822793271F910F9105
:102780000C94FF12089527E0929F800D1124A82F2A
:10279000A695A695A695877051E001C0550F8A951C
:1027A000EAF785E0A89FD001112420E030E070E036
:1027B000F901EA0FFB1FE057FE4F4081CB01022ECB
:1027C00002C0969587950A94E2F7817099278195C2
:1027D00084278523842780832F5F3F4F2530310551
:1027E00039F7089527E0929F800D1124682F669590
:1027F00066956695982F977085E0689FB0011124C3
:1028000040E050E080E0FA01E60FF71FE057FE4F8E
:10281000208130E0092E02C0369527950A94E2F710
:1028200021703327042E01C0220F0A94EAF7822B6D
:102830004F5F5F4F4530510531F70895BF92CF92FA
:10284000DF92EF92FF920F931F93CF93DF938C0150
:10285000C090C101D090C201E090C301F090C401CA
:102860008091BD019091BE01A091BF01B091C001C6
:10287000C82AD92AEA2AFB2ACFE1D0E0D701C6012B
:102880000C2E04C0B695A795979587950A94D2F714
:1028900080FF07C0BC2EB8018C2F0E94480701970B
:1028A00019F4219758F7B12C8B2DDF91CF911F91FF
:1028B0000F91FF90EF90DF90CF90BF900895CF934E
:1028C000DF93EC010E941E14BE010E944807DF91B5
:1028D000CF9108951F93CF93DF93EB019091570110
:1028E000992321F0CB010E945F1413C0882349F083
:1028F000CB010E941E14182F682FCE010E94C31313
:1029000004C0CB010E94F213182FBE01812F0E9438
:102910004807DF91CF911F9108958091C50185955A
:102920008595859508958091C5018770089590914A
:10293000C501977081E009F480E008958091D1018C
:1029400008959091D101892B8093D10108958095AC
:102950009091D10189238093D10108951092D101E2
:1029600008959091D001892B8093D001089580958E
:102970009091D00189238093D00108951092D001C5
:1029800008959091CF01892B8093CF010895809570
:102990009091CF0189238093CF0108951092CF01A8
:1029A00008958091C601089508950C94D4149091CF
:1029B000C601981721F08093C6010C94D514089590
:1029C0008091C601882329F01092C60180E00C9402
:1029D000D5140895E0910101F09102018091D10197
:1029E0008083E0910101F091020190818091D001FA
:1029F000892B8083E0910101F09102019081809107
:102A0000CF01892B80838091C601882381F0E091DA
:102A10000101F09102019081892B80838091010155
:102A2000909102010E94CA1581110E94E0148091C8
:102A30000101909102010C94B00908950C941D15A8
:102A400098E0899F90011124262B2093C5010E94B4
:102A500025138091C5018595859585950C941E1546
:102A60001092C50180E00C941E152091C50180953F
:102A700082238093C501982F977079F430E0482F16
:102A8000082E000C550B2417350739F085958595D0
:102A900085950E9446130C943015089580E090E0CF
:102AA0000E94021F21E08D3E9E4F09F020E0822F00
:102AB000089582E090E00C94FA1E83E090E00C947C
:102AC000FA1E84E090E00C94FA1E682F84E090E0F7
:102AD0000C94081FAB01BC018FE090E00C941A1F0E
:102AE000AB01BC0183E190E00C941A1F60E070E040
:102AF000CB010C94701560E070E0CB010E946A1568
:102B00000C9476156DEE7EEF80E090E00E94261F1B
:102B100060E082E090E00E94081F60E083E090E0C7
:102B20000E94081F1092C1011092C2011092C301AD
:102B30001092C40160E084E090E00E94081F60E011
:102B400085E090E00E94081F60E086E090E00E942F
:102B5000081F6FEF87E090E00E94081F40E050E000
:102B6000BA0188E090E00E941A1F60E08DE090E0DA
:102B70000E94081F40E050E0BA0188E190E00E9406
:102B80001A1F60E087E190E00E94081F0C947B15FB
:102B90000C948215FC01329697E080E0915029F068
:102BA00021912223D9F38F5FF9CF08959C01FC0175
:102BB00032969FEF80E04191461789F09F3F19F4CC
:102BC000411101C0982F8F5F8630A9F79F3F39F0E0
:102BD000F901E90FF11D97FDFA95628308950895B3
:102BE000FC01329608962081261301C0108231968E
:102BF000E817F907C1F708950C94D6150C94F01551
:102C0000029626E0FC0111922A95E9F708950895AD
:102C10000C9407160E9408168091EA01843049F14D
:102C20001092D30120E488E190E00FB6F894A895C3
:102C3000809360000FBE2093600080E00E94B70583
:102C40000E94081683B7817F846083BF83B7816049
:102C500083BF7894889583B78E7F83BF0FB6F8942F
:102C6000A895809160008861809360001092600058
:102C70000FBE089508950895CF930E943A160E94BA
:102C8000C8030E943B16C0E08C2F0E9413048111E0
:102C900004C0CF5FCA30C1F701C081E0CF91089571
:102CA00008950C9450160E94E90E0E94A4090E94F7
:102CB000B7050C9451161F920F920FB60F92112464
:102CC0008F939F93AF93BF938091D301811113C0D2
:102CD0008091E0019091E101A091E201B091E301C6
:102CE0004196A11DB11D8093E0019093E101A09355
:102CF000E201B093E301BF91AF919F918F910F904B
:102D00000FBE0F901F90189582E084BD93E095BD93
:102D10009AEF97BD80936E0008952FB7F894809135
:102D2000E0019091E101A091E201B091E3012FBF98
:102D30000895CF92DF92EF92FF920F931F932FB7D8
:102D4000F8944091E0015091E1016091E2017091AD
:102D5000E3012FBF6A017B01EE24FF248C0120E0F8
:102D600030E0C016D106E206F30610F441505109D6
:102D70009A01281B390BC9011F910F91FF90EF9009
:102D8000DF90CF90089578941F920F920FB60F9214
:102D900011248F939F93AF93BF938091E001909103
:102DA000E101A091E201B091E3010196A11DB11DE5
:102DB0008093E0019093E101A093E201B093E301DD
:102DC000BF91AF919F918F910F900FBE0F901F9069
:102DD000189587E797E790930108809300089AE099
:102DE00088E10FB6F894A895809360000FBE909389
:102DF0006000FFCF0E944E15811102C00E94C815CD
:102E00000E9459158093D2010E94611590E0909321
:102E1000E5018093E4010E945D15682F70E080E079
:102E200090E00C94C4120F931F938B3109F474C07B
:102E300058F58B3009F4A1C078F4863009F446C007
:102E400020F4853009F44CC09FC0873009F456C087
:102E5000883009F492C098C0803109F470C068F4D9
:102E60008E3009F091C08091D20182FB222720F997
:102E700091E0922790FB82F958C0863109F47DC019
:102E8000893109F47AC080C08A32E9F060F487326F
:102E900009F475C028F48E3108F476C08D515AC0FB
:102EA0008932F1F071C0833450F48A3308F051C094
:102EB000853309F464C0883309F45FC065C0833486
:102EC00009F45DC061C00E94C81557C08091D2014D
:102ED000817F8E7F8093D20181E08093D40155C0A1
:102EE0000E94E90E0FEF13ED20E301501040204047
:102EF000E1F700C000000E94E9163FC08091D201B6
:102F0000982F9095917090FB80F98093D201911148
:102F100034C0897F877F10C08091D20181FB222736
:102F200020F991E0922790FB81F98093D2019923B7
:102F300021F18091D20181608093D2011EC08091E5
:102F4000D20183FB222720F991E0922790FB83F99D
:102F5000ECCF895341E050E060E070E08A019B01D2
:102F600004C0000F111F221F331F8A95D2F7C90119
:102F7000B8010E94C4120E94E90E81E006C061E01F
:102F800070E080E090E0F5CF80E01F910F91089510
:102F900080E0089580E00895CF93C82F8091D401F8
:102FA000882319F0813031F02BC00E949E148232A8
:102FB00049F504C00E949E14823261F48C2F0E9455
:102FC000C817811104C08C2F0E94131717C081E00D
:102FD00090E014C08C2F0E94CA1781110EC0C4311A
:102FE00049F018F4CB3049F00FC0C93219F0C8339A
:102FF00021F00AC01092D40107C081E0817006C0A0
:103000001092D40180E002C080E0F8CFCF91089503
:103010008091DD01089508950F931F93CF93DF935F
:1030200000D01F92CDB7DEB78C010E943B1A8230D0
:1030300011F0843021F584E089831B830A8382E0C8
:103040008093E9008FEF9091E800815095FD06C0D4
:1030500095ED9A95F1F700008111F5CF8091E80088
:1030600085FF0DC040E050E063E070E0CE010196C6
:103070000E94581A8091E8008E778093E8000F90A4
:103080000F900F90DF91CF911F910F910895CF93E3
:10309000DF9300D01F92CDB7DEB72091EA01243034
:1030A00031F523E02983805891099B838A8382E04C
:1030B0008093E9008FEF9091E800815095FD06C064
:1030C00095ED9A95F1F700008111F5CF8091E80018
:1030D00085FF0DC040E050E063E070E0CE01019656
:1030E0000E94581A8091E8008E778093E8000F9034
:1030F0000F900F90DF91CF910895CF93DF93EC0164
:103100000E943B1A823011F0843039F581E08093BF
:10311000E9008FEF9091E800815095FD06C095ED94
:103120009A95F1F700008111F5CF8091E80085FFB5
:1031300014C040E050E068E070E0CE010E94581AF0
:103140008091E8008E778093E80088E0FE01A5ED8D
:10315000B1E001900D928A95E1F7DF91CF9108954A
:103160008091E901811109C00E94ED1B0E944A1C57
:103170008091E20084608093E20008951092E9015A
:103180000895089508950C94531642E061EC81E08F
:103190000E94671B42E261EC82E00C94671B809105
:1031A000EC01833009F460C030F4813071F082307A
:1031B00009F499C008958A3009F485C08B3009F468
:1031C0006BC0893009F0A7C020C08091EB01813A23
:1031D00009F0A1C08091E800877F8093E80080918A
:1031E000EF019091F001892B21F468E085ED91E0E9
:1031F00003C060E080E090E070E00E94A31A80913C
:10320000E8008B778093E80008958091EB0181328C
:1032100009F081C08091EF019091F001029708F0D0
:103220007AC08091E800877F8093E8008091E80071
:1032300082FD05C08091EA018111F8CF6CC0209118
:10324000F3008091F20090E0922B029729F4809194
:10325000F1008B7F813021F48091F1008093DD01BA
:103260008091E8008B7753C08091EB01813A09F09F
:1032700052C08091EF019091F001892B09F04BC071
:103280008091E800877F8093E8008091E80080FFCC
:10329000FCCF80910D0136C08091EB018132D9F5D0
:1032A0008091EF019091F001892BA9F58091E800C0
:1032B000877F8093E8000E949C1B8091ED018093A2
:1032C0000D010C94E90E8091EB01813221F5809182
:1032D000E800877F8093E8000E949C1B8091EE01AC
:1032E0008093DE0108958091EB01813AA1F48091F1
:1032F000E800877F8093E8008091E80080FFFCCFA2
:103300008091DE018093F1008091E8008E778093B8
:10331000E8000C949C1B089584B7877F84BF0FB688
:10332000F894A89580916000886180936000109265
:1033300060000FBE80E880936100109261000E94DF
:10334000F4090E94ED1B0E944A1C8091E2008460F7
:103350008093E20078940E94D91E0E94FC0983E0C9
:1033600091E00E949F098091EA01853069F40E94F2
:103370000A168091E8018823B1F30E943C16882345
:1033800091F30E94421AEFCF0E94040AECCF0C94F2
:10339000C919292F332723303105C9F064F42130AE
:1033A000310581F02230310509F04CC08BE390E00B
:1033B00026EA33E04BC02132310521F122323105BA
:1033C00089F140C082E190E021EE33E03FC09927CF
:1033D0008130910571F02CF4892BA1F5E2EAF3E03C
:1033E0000DC08230910541F0039761F5EAE7F3E003
:1033F00005C0E4E9F3E002C0E0E8F3E0849190E086
:103400009F0124C06115710541F061307105D1F44F
:1034100089E090E021ED33E019C089E090E028EBED
:1034200033E014C06115710541F06130710551F44C
:1034300086E390E023EF33E009C080E490E029E2E6
:1034400034E004C080E090E020E030E0FA01318315
:10345000208308950895CF93C82F0E942A1AC093FD
:10346000DF01CF9108958091EA01843011F081E06D
:10347000089582E008958091DF01811102C00C94CB
:10348000331A089580E189BD82E189BD09B400FE47
:10349000FDCF8091D8008F7D8093D8008091E0008F
:1034A00082608093E0008091E00081FDFCCF089570
:1034B000CF92DF92EF92FF920F931F93CF93DF9300
:1034C000EC018B016A010E94BB1B811133C0C11446
:1034D000D10439F0F60180819181081B190BC80FC6
:1034E000D91FE12CF12C0115110519F18091E8008B
:1034F00085FD16C08091E8008E778093E800C114A6
:10350000D10449F0F60180819181E80EF91EF18223
:10351000E08285E00FC00E94BB1B882321F30AC014
:1035200089918093F10001501109FFEFEF1AFF0A12
:10353000DACF80E0DF91CF911F910F91FF90EF9054
:10354000DF90CF9008952091F1013091F20126177C
:10355000370748F06115710539F42091E8002E779E
:103560002093E80001C0B90140E061157105A9F19F
:103570002091EA01222309F443C0253009F442C016
:103580002091E80023FD40C02091E80022FD32C0D8
:103590002091E80020FFE9CF4091F3002091F20054
:1035A00030E0342BFC01CF016115710559F0283052
:1035B000310540F481918093F100615071092F5FD2
:1035C0003F4FF1CF41E02830310509F040E0209134
:1035D000E8002E772093E800C8CF4111C9CF0AC078
:1035E0008091EA01882361F0853061F08091E800E4
:1035F00083FD0AC08091E80082FFF2CF80E0089549
:1036000082E0089583E0089581E008952091F1011A
:103610003091F2012617370748F06115710539F42A
:103620002091E8002E772093E80001C0B901FC0149
:1036300020E06115710591F18091EA01882309F478
:1036400040C0853009F43FC08091E80083FD3DC053
:103650008091E80082FD2FC08091E80080FFE9CFD3
:103660002091F3008091F20090E0922B611571059A
:1036700059F08830910540F424912093F10031965F
:10368000615071090196F2CF21E0089709F020E01E
:103690008091E8008E778093E800CBCF2111CCCFCA
:1036A0000AC08091EA01882361F0853061F0809141
:1036B000E80083FD0AC08091E80082FFF2CF80E03D
:1036C000089582E0089583E0089581E00895982F99
:1036D000973058F59093E900981739F07091EC0005
:1036E0002091ED005091F00003C0242F762F50E080
:1036F00021FF19C03091EB003E7F3093EB003091F9
:10370000ED003D7F3093ED003091EB003160309360
:10371000EB007093EC002093ED005093F0002091AB
:10372000EE0027FF07C09F5FD3CF8F708093E90023
:1037300081E0089580E008958091EB0187FF11C03A
:103740008091E80082FD05C08091EA018111F8CFE7
:1037500011C08091E8008B770BC08091EA0188232B
:1037600049F08091E80080FFF8CF8091E8008E77E3
:103770008093E80008952091E4003091E50095E6FB
:103780004091EC00842F817040FF22C08091E800BE
:1037900080FD1CC08091EA01882391F0853091F072
:1037A0008091EB0085FD10C04091E4005091E50050
:1037B0004217530729F39A01915011F784E00895B5
:1037C00082E0089583E0089581E0089580E00895FF
:1037D0004091E80042FFDECF08950E945B1C0E94EA
:1037E000631CE0EEF0E0808181608083E8EDF0E032
:1037F00080818F77808319BCA7EDB0E08C918E7F9C
:103800008C9380818F7E80831092E90108950F93BD
:103810001F93CF93DF930E945B1C0E94631CC8ED33
:10382000D0E088818F7788838881806888838881C9
:103830008F7D888319BC1092EA011092E6011092E4
:10384000E8011092E70100EE10E0F80180818B7F23
:10385000808388818160888342E060E080E00E940C
:10386000671BE1EEF0E080818E7F8083E2EEF0E086
:10387000808181608083808188608083F80180817D
:103880008E7F8083888180618883DF91CF911F91B3
:103890000F910895E8EDF0E080818F7E8083E7ED61
:1038A000F0E080818160808384E082BF81E080934A
:1038B000E9010C94071CE8EDF0E080818E7F8083A5
:1038C0001092E20008951092DA001092E10008953B
:1038D0001F920F920FB60F9211242F933F934F9385
:1038E0005F936F937F938F939F93AF93BF93EF9368
:1038F000FF938091E10082FF0BC08091E20082FF84
:1039000007C08091E1008B7F8093E1000E94D81E68
:103910008091DA0080FF1FC08091D80080FF1BC01B
:103920008091DA008E7F8093DA008091D90080FF49
:103930000DC080E189BD82E189BD09B400FEFDCFE3
:1039400081E08093EA010E94B01805C019BC109272
:10395000EA010E94BE188091E10080FF19C08091A9
:10396000E20080FF15C08091E2008E7F8093E2002C
:103970008091E20080618093E2008091D8008062B3
:103980008093D80019BC85E08093EA010E94C21898
:103990008091E10084FF30C08091E20084FF2CC060
:1039A00080E189BD82E189BD09B400FEFDCF80912F
:1039B000D8008F7D8093D8008091E1008F7E809326
:1039C000E1008091E2008F7E8093E2008091E2002E
:1039D00081608093E2008091E601882311F084E009
:1039E00007C08091E30087FD02C081E001C083E051
:1039F0008093EA010E94C3188091E10083FF29C0EF
:103A00008091E20083FF25C08091E100877F809351
:103A1000E10082E08093EA011092E6018091E100EA
:103A20008E7F8093E1008091E2008E7F8093E200A0
:103A30008091E20080618093E20042E060E080E0FB
:103A40000E94671B8091F00088608093F0000E94C4
:103A5000C118FF91EF91BF91AF919F918F917F918D
:103A60006F915F914F913F912F910F900FBE0F90EB
:103A70001F9018951F920F920FB60F9211242F933B
:103A80003F934F935F936F937F938F939F93AF93E6
:103A9000BF93CF93DF93EF93FF93C091E900CF7073
:103AA0008091EC00D82FD17080FDD0E81092E90011
:103AB0008091F000877F8093F00078940E947E1DB3
:103AC0001092E9008091F00088608093F000CD2B87
:103AD000CF70C093E900FF91EF91DF91CF91BF913B
:103AE000AF919F918F917F916F915F914F913F9196
:103AF0002F910F900FBE0F901F9018951F93CF938B
:103B0000DF93CDB7DEB7AA970FB6F894DEBF0FBE2E
:103B1000CDBFEBEEF1E088E08E0F9091F100919334
:103B20008E13FBCF0E94CF188091E80083FF28C13D
:103B30008091EB019091EC01492F50E04A30510502
:103B400008F01EC1FA01E556FF4F0C94F41E8038B0
:103B500021F0823809F014C108C08091E7019091EA
:103B6000E801992389F082600FC08091EF018F7086
:103B7000873008F005C18093E9008091EB0085FB58
:103B8000882780F91092E9009091E800977F909340
:103B9000E8008093F1001092F100D0C0282F2D7F13
:103BA00009F0EEC0882319F0823061F0E9C08091FD
:103BB000ED01813009F0E4C0933009F080E080939A
:103BC000E8012EC08091ED0181112AC08091EF01A2
:103BD0008F702FEF280F263008F0D2C08093E900B5
:103BE0002091EB0020FF1CC0933021F48091EB006A
:103BF000806214C09091EB0090619093EB0021E003
:103C000030E0A90102C0440F551F8A95E2F74093A6
:103C1000EA001092EA008091EB0088608093EB004C
:103C20001092E9008091E800877F8093E8000E946D
:103C30009C1BA6C08111A4C01091ED011F7780913B
:103C4000E3008078812B8093E3008091E800877FF8
:103C50008093E8000E949C1B8091E80080FFFCCFCD
:103C60008091E30080688093E300111102C082E03C
:103C700001C083E08093EA0183C08058823008F05D
:103C80007FC08091ED019091EE018C3D53E095074E
:103C900079F583E08A838AE289834FB7F894DE015D
:103CA000139620E03EE051E2E32FF0E050935700FE
:103CB000E49120FF03C0E295EF703F5FEF708E2F1D
:103CC00090E0EA3010F0C79601C0C0968D939D93A6
:103CD0002F5F243149F74FBF8091E800877F8093A1
:103CE000E8006AE270E0CE0101960E94A31A15C0B6
:103CF0006091EF017091F001AE014F5F5F4F0E9444
:103D0000C719BC01892BE1F19091E800977F90934E
:103D1000E80089819A810E94061B8091E8008B77D8
:103D20008093E8002DC0803859F58091E800877FA6
:103D30008093E8008091E6018093F1008091E80093
:103D40008E7773CF81111CC09091ED019230C0F439
:103D50008091E800877F8093E8009093E6010E94BD
:103D60009C1B8091E601811106C08091E30087FDD4
:103D700002C081E001C084E08093EA010E94C5187E
:103D80008091E80083FF0AC08091E800877F8093DC
:103D9000E8008091EB0080628093EB00AA960FB65A
:103DA000F894DEBF0FBECDBFDF91CF911F91089574
:103DB0000895CF938091EA018823A1F0C091E90092
:103DC000CF709091EC00892F817090FD80E8C82B16
:103DD0001092E9008091E80083FD0E947E1DCF7063
:103DE000C093E900CF910895EE0FFF1F0590F49165
:103DF000E02D0994F999FECF92BD81BDF89A9927DB
:103E000080B50895A8E1B0E042E050E00C942E1F88
:103E1000262FF999FECF92BD81BDF89A019700B483
:103E2000021639F01FBA20BD0FB6F894FA9AF99A23
:103E30000FBE08950396272F0E94091F0E94081F96
:103E4000252F0E94091F242F0C94091F0196272F4C
:103E50000E94091F0C94081FDC01CB01FC01F99999
:103E6000FECF06C0F2BDE1BDF89A319600B40D92C6
:0C3E700041505040B8F70895F894FFCF7F
:103E7C0001C70108187D180B1847180C1801F4F528
:103E8C00F6F73133329497C6343500000000000049
:00000001FF
